{
  "contractName": "TasksContract",
  "abi": [
    {
      "inputs": [],
      "stateMutability": "nonpayable",
      "type": "constructor"
    },
    {
      "anonymous": false,
      "inputs": [
        {
          "indexed": false,
          "internalType": "uint256",
          "name": "id",
          "type": "uint256"
        },
        {
          "indexed": false,
          "internalType": "string",
          "name": "title",
          "type": "string"
        },
        {
          "indexed": false,
          "internalType": "string",
          "name": "description",
          "type": "string"
        },
        {
          "indexed": false,
          "internalType": "bool",
          "name": "done",
          "type": "bool"
        },
        {
          "indexed": false,
          "internalType": "uint256",
          "name": "createdAt",
          "type": "uint256"
        }
      ],
      "name": "TaskCreated",
      "type": "event"
    },
    {
      "anonymous": false,
      "inputs": [
        {
          "indexed": false,
          "internalType": "uint256",
          "name": "id",
          "type": "uint256"
        },
        {
          "indexed": false,
          "internalType": "bool",
          "name": "done",
          "type": "bool"
        }
      ],
      "name": "TaskToggledDone",
      "type": "event"
    },
    {
      "inputs": [],
      "name": "taskCounter",
      "outputs": [
        {
          "internalType": "uint256",
          "name": "",
          "type": "uint256"
        }
      ],
      "stateMutability": "view",
      "type": "function"
    },
    {
      "inputs": [
        {
          "internalType": "uint256",
          "name": "",
          "type": "uint256"
        }
      ],
      "name": "tasks",
      "outputs": [
        {
          "internalType": "uint256",
          "name": "id",
          "type": "uint256"
        },
        {
          "internalType": "string",
          "name": "title",
          "type": "string"
        },
        {
          "internalType": "string",
          "name": "description",
          "type": "string"
        },
        {
          "internalType": "bool",
          "name": "done",
          "type": "bool"
        },
        {
          "internalType": "uint256",
          "name": "createdAt",
          "type": "uint256"
        }
      ],
      "stateMutability": "view",
      "type": "function"
    },
    {
      "inputs": [
        {
          "internalType": "string",
          "name": "_title",
          "type": "string"
        },
        {
          "internalType": "string",
          "name": "_description",
          "type": "string"
        }
      ],
      "name": "createTask",
      "outputs": [],
      "stateMutability": "nonpayable",
      "type": "function"
    },
    {
      "inputs": [
        {
          "internalType": "uint256",
          "name": "_id",
          "type": "uint256"
        }
      ],
      "name": "toggleDone",
      "outputs": [],
      "stateMutability": "nonpayable",
      "type": "function"
    }
  ],
  "bytecode": "0x6080604052600080553480156200001557600080fd5b50620000926040518060400160405280600981526020017f544f444f204461707000000000000000000000000000000000000000000000008152506040518060400160405280601681526020017f706f7274726174656420746f20506f6c796a75696365000000000000000000008152506200009860201b60201c565b62000487565b600080815480929190620000ac90620003ca565b91905055506040518060a00160405280600054815260200183815260200182815260200160001515815260200142815250600160008054815260200190815260200160002060008201518160000155602082015181600101908051906020019062000119929190620001ae565b50604082015181600201908051906020019062000138929190620001ae565b5060608201518160030160006101000a81548160ff021916908315150217905550608082015181600401559050507f6549102bed7d1bb5ec529ee14e2ca60ffc1f47f66d4cc6ca713220613cc64c256000548383600042604051620001a2959493929190620002c1565b60405180910390a15050565b828054620001bc9062000394565b90600052602060002090601f016020900481019282620001e057600085556200022c565b82601f10620001fb57805160ff19168380011785556200022c565b828001600101855582156200022c579182015b828111156200022b5782518255916020019190600101906200020e565b5b5090506200023b91906200023f565b5090565b5b808211156200025a57600081600090555060010162000240565b5090565b620002698162000348565b82525050565b60006200027c826200032c565b62000288818562000337565b93506200029a8185602086016200035e565b620002a58162000476565b840191505092915050565b620002bb8162000354565b82525050565b600060a082019050620002d86000830188620002b0565b8181036020830152620002ec81876200026f565b905081810360408301526200030281866200026f565b90506200031360608301856200025e565b620003226080830184620002b0565b9695505050505050565b600081519050919050565b600082825260208201905092915050565b60008115159050919050565b6000819050919050565b60005b838110156200037e57808201518184015260208101905062000361565b838111156200038e576000848401525b50505050565b60006002820490506001821680620003ad57607f821691505b60208210811415620003c457620003c362000447565b5b50919050565b6000620003d78262000354565b91507fffffffffffffffffffffffffffffffffffffffffffffffffffffffffffffffff8214156200040d576200040c62000418565b5b600182019050919050565b7f4e487b7100000000000000000000000000000000000000000000000000000000600052601160045260246000fd5b7f4e487b7100000000000000000000000000000000000000000000000000000000600052602260045260246000fd5b6000601f19601f8301169050919050565b610a7e80620004976000396000f3fe608060405234801561001057600080fd5b506004361061004c5760003560e01c8063292a458514610051578063586717301461006d5780638d9776721461008b578063d81ef739146100bf575b600080fd5b61006b600480360381019061006691906106b2565b6100db565b005b6100756101e9565b604051610082919061079e565b60405180910390f35b6100a560048036038101906100a0919061071e565b6101ef565b6040516100b69594939291906107e2565b60405180910390f35b6100d960048036038101906100d4919061071e565b610342565b005b6000808154809291906100ed9061094a565b91905055506040518060a001604052806000548152602001838152602001828152602001600015158152602001428152506001600080548152602001908152602001600020600082015181600001556020820151816001019080519060200190610158929190610592565b506040820151816002019080519060200190610175929190610592565b5060608201518160030160006101000a81548160ff021916908315150217905550608082015181600401559050507f6549102bed7d1bb5ec529ee14e2ca60ffc1f47f66d4cc6ca713220613cc64c2560005483836000426040516101dd9594939291906107e2565b60405180910390a15050565b60005481565b600160205280600052604060002060009150905080600001549080600101805461021890610918565b80601f016020809104026020016040519081016040528092919081815260200182805461024490610918565b80156102915780601f1061026657610100808354040283529160200191610291565b820191906000526020600020905b81548152906001019060200180831161027457829003601f168201915b5050505050908060020180546102a690610918565b80601f01602080910402602001604051908101604052809291908181526020018280546102d290610918565b801561031f5780601f106102f45761010080835404028352916020019161031f565b820191906000526020600020905b81548152906001019060200180831161030257829003601f168201915b5050505050908060030160009054906101000a900460ff16908060040154905085565b6000600160008381526020019081526020016000206040518060a00160405290816000820154815260200160018201805461037c90610918565b80601f01602080910402602001604051908101604052809291908181526020018280546103a890610918565b80156103f55780601f106103ca576101008083540402835291602001916103f5565b820191906000526020600020905b8154815290600101906020018083116103d857829003601f168201915b5050505050815260200160028201805461040e90610918565b80601f016020809104026020016040519081016040528092919081815260200182805461043a90610918565b80156104875780601f1061045c57610100808354040283529160200191610487565b820191906000526020600020905b81548152906001019060200180831161046a57829003601f168201915b505050505081526020016003820160009054906101000a900460ff1615151515815260200160048201548152505090508060600151158160600190151590811515815250508060016000848152602001908152602001600020600082015181600001556020820151816001019080519060200190610506929190610592565b506040820151816002019080519060200190610523929190610592565b5060608201518160030160006101000a81548160ff021916908315150217905550608082015181600401559050507f3a359256e016dcfa8426ec503e08484999d6fcfb8c0f6084dc9e63374d8384298282606001516040516105869291906107b9565b60405180910390a15050565b82805461059e90610918565b90600052602060002090601f0160209004810192826105c05760008555610607565b82601f106105d957805160ff1916838001178555610607565b82800160010185558215610607579182015b828111156106065782518255916020019190600101906105eb565b5b5090506106149190610618565b5090565b5b80821115610631576000816000905550600101610619565b5090565b600061064861064384610874565b610843565b90508281526020810184848401111561066057600080fd5b61066b8482856108d6565b509392505050565b600082601f83011261068457600080fd5b8135610694848260208601610635565b91505092915050565b6000813590506106ac81610a31565b92915050565b600080604083850312156106c557600080fd5b600083013567ffffffffffffffff8111156106df57600080fd5b6106eb85828601610673565b925050602083013567ffffffffffffffff81111561070857600080fd5b61071485828601610673565b9150509250929050565b60006020828403121561073057600080fd5b600061073e8482850161069d565b91505092915050565b610750816108c0565b82525050565b6000610761826108a4565b61076b81856108af565b935061077b8185602086016108e5565b61078481610a20565b840191505092915050565b610798816108cc565b82525050565b60006020820190506107b3600083018461078f565b92915050565b60006040820190506107ce600083018561078f565b6107db6020830184610747565b9392505050565b600060a0820190506107f7600083018861078f565b81810360208301526108098187610756565b9050818103604083015261081d8186610756565b905061082c6060830185610747565b610839608083018461078f565b9695505050505050565b6000604051905081810181811067ffffffffffffffff8211171561086a576108696109f1565b5b8060405250919050565b600067ffffffffffffffff82111561088f5761088e6109f1565b5b601f19601f8301169050602081019050919050565b600081519050919050565b600082825260208201905092915050565b60008115159050919050565b6000819050919050565b82818337600083830152505050565b60005b838110156109035780820151818401526020810190506108e8565b83811115610912576000848401525b50505050565b6000600282049050600182168061093057607f821691505b60208210811415610944576109436109c2565b5b50919050565b6000610955826108cc565b91507fffffffffffffffffffffffffffffffffffffffffffffffffffffffffffffffff82141561098857610987610993565b5b600182019050919050565b7f4e487b7100000000000000000000000000000000000000000000000000000000600052601160045260246000fd5b7f4e487b7100000000000000000000000000000000000000000000000000000000600052602260045260246000fd5b7f4e487b7100000000000000000000000000000000000000000000000000000000600052604160045260246000fd5b6000601f19601f8301169050919050565b610a3a816108cc565b8114610a4557600080fd5b5056fea2646970667358221220ba75f87ab3687038bc43c7fee55ef2f1f7abe41b8a67115de41c5bfb3401b03364736f6c63430008000033",
  "immutableReferences": {},
  "source": "// SPDX-License-Identifier: MIT\npragma solidity >=0.4.22 <0.9.0;\n\ncontract TasksContract {\n\n  uint public taskCounter = 0;\n\n  constructor () public {\n    createTask(\"TODO Dapp\",  \"portrated to Polyjuice\");\n  }\n\n  struct Task {\n    uint256 id;\n    string title;\n    string description;\n    bool done;\n    uint256 createdAt;\n  }\n\n  event TaskCreated(\n    uint256 id,\n    string title,\n    string description,\n    bool done,\n    uint256 createdAt\n  );\n\n  event TaskToggledDone(uint256 id, bool done);\n\n  mapping (uint256 => Task) public tasks;\n\n  function createTask(string memory _title, string memory _description) public {\n    taskCounter++;\n    tasks[taskCounter] = Task(taskCounter, _title, _description, false, block.timestamp);\n    emit TaskCreated(taskCounter, _title, _description, false, block.timestamp);\n  }\n\n  function toggleDone(uint256 _id) public {\n    Task memory _task = tasks[_id];\n    _task.done = !_task.done;\n    tasks[_id] = _task;\n    emit TaskToggledDone(_id, _task.done);\n  }\n\n}",
  "sourcePath": "/home/x777/react/gitcoin-task-7/todo-dapp-polyjuice/contracts/TasksContract.sol",
  "compiler": {
    "name": "solc",
    "version": "0.8.0+commit.c7dfd78e.Emscripten.clang"
  },
  "schemaVersion": "3.2.3",
  "updatedAt": "2021-08-13T10:41:48.859Z",
  "devdoc": {
    "kind": "dev",
    "methods": {},
    "version": 1
  },
  "userdoc": {
    "kind": "user",
    "methods": {},
    "version": 1
  }
}